S018000070726F6A6563745F61746D65676131362E73726563E0
S11300000C9434000C9451000C9451000C94510045
S11300100C9451000C9451000C9451000C94510018
S11300200C9451000C9451000C9451000C94510008
S11300300C9451000C9451000C9451000C945100F8
S11300400C9451000C9451000C9451000C945100E8
S11300500C94510071005F0061006300650067004B
S113006069006B006D006F0011241FBECFE5D4E062
S1130070DEBFCDBF10E0A0E6B0E0E8E4F9E002C0E6
S113008005900D92A63AB107D9F720E0A6EAB0E0B0
S113009001C01D92A23BB207E1F70E9409040C942F
S11300A0A2040C94000095B390E08A30910528F4E2
S11300B0FC01E65DFF4F0C9479048FEF13C083EECF
S11300C011C084E40FC081E40DC083E20BC081E160
S11300D009C080E107C083EC05C080E003C081E073
S11300E001C080E8877F85BB08958BB388608BBB94
S11300F08AE18A95F1F700C08BB3877F8BBB85E8D3
S11301008A95F1F7000008959BB39F70807F982B28
S11301109BBB0E9475000895CF93C82F8BB38D7F2E
S11301208BBB8C2F0E9484008C2F8295807F0E9431
S113013084008FE99FE00197F1F700C00000CF91A0
S11301400895CF93C82F8BB382608BBB8C2F0E94F2
S113015084008C2F8295807F0E94840085E88A9594
S1130160F1F70000CF9108958AB38A6F8ABB8BB3ED
S113017085708BBB8FE39CE90197F1F700C0000009
S113018083E30E948C0082E30E948C0088E20E9438
S11301908C008CE00E948C0081E00E948C008FE92E
S11301A09FE00197F1F700C0000008950F931F939B
S11301B0CF93DF938C01C0E0D0E0F801EC0FFD1F7A
S11301C08081882321F00E94A1002196F6CFDF913F
S11301D0CF911F910F910895CF93DF9300D0CDB7A6
S11301E0DEB790E8998390EC9A83E1E0F0E0EC0FBD
S11301F0FD1FE80FF11D8081860F0E948C000F9077
S11302000F90DF91CF910895CF9360E080E00E943A
S1130210EC0080E690E00E94D6008091AE00805D04
S11302200E94A10083E690E00E94D6008091B00075
S1130230805D0E94A10085E690E00E94D600209196
S1130240A6003091A700283E83E0380798F0369541
S113025027953695279536952795A5ECB0E20E940B
S11302607F04929582958F7089279F708927805D7E
S11302700E94A1002091A6003091A70036952795F1
S113028036952795ABE7B4E10E947F04AC015695FF
S113029047959A01ADECBCEC0E947F049695879536
S11302A096958795969587959C01220F331F880F05
S11302B0991F880F991F880F991F820F931F9A0106
S11302C0281B390BC901805D0E94A1002091A60062
S11302D03091A700ADECBCEC0E947F04AC015695B4
S11302E0479556954795569547959A010E947F04E0
S11302F09695879596958795969587959C01220F57
S1130300331F880F991F880F991F880F991F820F19
S1130310931F9A01281B390BC901805D0E94A1001B
S11303204091A6005091A7009A01ADECBCEC0E944C
S11303307F049695879596958795969587959C01C4
S1130340220F331F880F991F880F991F880F991F39
S1130350820F931F9A01281B390BC901805D0E94EB
S1130360A1008091A6009091A7008139914028F0C6
S113037089E690E00E94D60004C08EE690E00E94D8
S1130380D60083E790E00E94D60060E081E00E94FE
S1130390EC008FE790E00E94D6008091A900CDEC9C
S11303A08C9F812D1124869586958695805D0E946B
S11303B0A1008091A9008C9F912D1124969596956A
S11303C09695990F292F220F220F920F891B805D7A
S11303D00E94A1008FED0E94A10083E40E94A1006D
S11303E084E890E00E94D6008091A8008C9F812D23
S11303F01124869586958695805D0E94A100809142
S1130400A8008C9FC12D1124C695C695C695CC0F06
S11304109C2F990F990FC90F8C1B805D0E94A1001E
S113042085E20E94A10088E790E00E94D600CF9167
S113043008950F931F93CF93DF9300D000D01F92A2
S1130440CDB7DEB78C01DB0187B3806187BB88B38E
S11304508F7E88BB8FE39CE90197F1F700C0000011
S113046098B3906198BB97B39F7E97BB9AE69A9591
S1130470F1F700C086B3682F607184FD43C0E5EDD9
S1130480EA95F1F7000096B3892F807194FF3DC07F
S1130490F5EDFA95F1F7000080E0853020F570E085
S11304A090E09830B8F4B49BFECF20E52A95F1F79C
S11304B0B49B0CC047E050E0491B510921E030E0F7
S11304C002C0220F331F4A95E2F7722BB499FECF74
S11304D09F5FE7CFE1E0F0E0EC0FFD1FE80FF11DB7
S11304E070838F5FDACF39818A812B819C81830F5E
S11304F0820F890F9D81891307C03C93F8012083E3
S113050081E003C080E001C0862F0F900F900F9010
S11305100F900F90DF91CF911F910F91089580E478
S113052087B987E886B908958FEF84BB85BB81BB03
S113053082BB17BA88BB0E948F020E94B400089540
S1130540877097B1987F892B87B986B1806486B903
S1130550349BFECF86B1806186B984B195B108958C
S11305600F931F93CF93DF938C010E940401C0E08B
S1130570D0E0C017D1070CF0E5C08FE19EE40197ED
S1130580F1F700C000008091AA009091AB000196A1
S11305909093AB008093AA0068EC70E00E9465041D
S11305A0892B69F468EA70E089EA90E00E941902F4
S11305B082E00E94A0029093A7008093A6008091FD
S11305C0AA009091AB008039914024F01092AB00C6
S11305D01092AA008091AE009091AF0081309105F5
S11305E019F084309105D1F52091AC003091AD0023
S11305F02F5F3F4F3093AD002093AC00243631057C
S11306006CF11092AD001092AC00019781F48091CE
S1130610B0009091B10001969093B1008093B00026
S11306200A97B4F01092B1001092B00011C08091FA
S1130630B0009091B10001979093B1008093B00005
S1130640992334F489E090E09093B1008093B00052
S11306508091B0000E9453000E940401B0990BC025
S113066081E090E09093AF008093AE001092AD00D3
S11306701092AC0069C0B3990DC084E090E09093EF
S1130680AF008093AE001092AD001092AC0081E0F8
S113069090E05AC0B19928C08FE39CE90197F1F723
S11306A000C00000B19920C082E090E09093AF00B8
S11306B08093AE008091B0009091B1000196909328
S11306C0B1008093B0000A9724F01092B100109208
S11306D0B0008091B0000E9453000E940401B19BBD
S11306E0FECF81E090E030C0B2992AC08FE39CE94C
S11306F00197F1F700C00000B29922C083E090E0B6
S11307009093AF008093AE008091B0009091B100BF
S113071001979093B1008093B000992334F489E059
S113072090E09093B1008093B0008091B0000E945B
S113073053000E940401B29BFECF81E090E004C00C
S11307402A9617CF80E090E0DF91CF911F910F910F
S11307500895CF93DF93C0E0D0E0C830D10594F47E
S113076081E090E00C2E02C0880F991F0A94E2F7F2
S1130770809582BB88EC90E00E94B002892B11F432
S11307802196EBCFDF91CF9108951F93CF93DF9301
S1130790C0E0D0E010E0C830D105A4F481E090E0DE
S11307A00C2E02C0880F991F0A94E2F7182B812F90
S11307B0809582BB88EC90E00E94B002892B41F4C2
S11307C02196E9CF8FEF82BB88EC90E00E94B002C3
S11307D0DF91CF911F9108958AEA82BB8CE291E068
S11307E00E94B002892B31F485E582BB8CE291E052
S11307F00E94B002089512BA82E390E00E94B0020F
S1130800892B31F48FEF82BB82E390E00E94B00227
S113081008950E9494021092AF001092AE001092BC
S1130820B1001092B00062E080E00E94EC0088E821
S113083090E00E94D60060E081E00E94EC0085E92F
S113084090E00E94D6002FEF83ED90E3215080408A
S11308509040E1F700C0000068EA70E089EA90E0A7
S11308600E9419022FEF89E698E1215080409040C0
S1130870E1F700C000008091B0000E945300809115
S1130880AE009091AF0082309105B1F02CF4009746
S113089049F0019771F0EFCF8330910581F004970F
S11308A089F0E9CF8FEF82BB84E690E00E94B0022A
S11308B0E2CF0E94A903DFCF0E94C503DCCF0E94D0
S11308C0EC03D9CF0E94FB03D6CF97FB072E16F477
S11308D0009407D077FD09D00E948E0407FC05D050
S11308E03EF4909581959F4F0895709561957F4F43
S11308F00895EE0FFF1F0590F491E02D0994A29F37
S1130900B001B39FC001A39F700D811D1124911DDF
S1130910B29F700D811D1124911D0895AA1BBB1B4C
S113092051E107C0AA1FBB1FA617B70710F0A61BEB
S1130930B70B881F991F5A95A9F780959095BC010C
S10B0940CD010895F894FFCFE6
S1130948284D00290020413D002042414400204F09
S11309584B200020202020202020202020200020A0
S113096820543D0020483D00323032323431383989
S11309782D4B36370031382D4C65204D696E682073
S10909885475616E0000CD
S9030000FC
